:100000000C9460000C9474050C9474050C947405A5
:100010000C9474050C9474050C9474050C9474057C
:100020000C9474050C9474050C9474050C9474056C
:100030000C9474050C9474050C9474050C9474055C
:100040000C9474050C9474050C9474050C9474054C
:100050000C9474050C9474050C9474050C9474053C
:100060000C9474050C9474050C9474050C9474052C
:100070000C9474050C9474050C9474050C9474051C
:100080000C9474050C9474050C9474050C9474050C
:100090000C9474050C9474050C9474050C947405FC
:1000A0000C9474050C9474054000401E000AF64040
:1000B0001E40208040204021000B1440214027801A
:1000C000809101108F7C8060806898ED94BF809350
:1000D000011011241FBECFEFCDBFDFE7DEBFE8EA7E
:1000E000F0E040E019C0B791A791379127910791AF
:1000F00007FD0EC097918791EF01F92FE82F0BBFF5
:1001000007900D92A217B307D9F7FE011BBE04C0DA
:100110001D92A217B307E1F7E03CF40721F70E9414
:0A0120002D030C945705F894FFCF4F
:10012A00CF9381E08093214080E88093060488E0A1
:10013A008093244020E041E064E270E480E00E9481
:10014A00CB038FE38093244020E041E064E270E433
:10015A0081E00E94CB031092244020E041E064E257
:10016A0070E482E00E94CB0383E08093244020E085
:10017A0041E064E270E40E94CB0382E08093244071
:10018A0020E041E064E270E485E00E94CB03CEE027
:10019A00C093244020E041E064E270E486E00E94DB
:1001AA00CB03C093244020E041E064E270E487E09E
:1001BA000E94CB0383E00E942B0181E00E94AE02E1
:1001CA0084E00E942B0180E00E94AE0220E041E020
:1001DA0065E270E487E00E942304809125408067ED
:1001EA008093244020E041E064E270E487E00E94CA
:1001FA00CB0341E061E081E00E94EE0261E081E030
:10020A000E949C0385E00E94D80488EE0E94B904EB
:10021A0086E00E94680380E20E94780481E00E94DE
:10022A00360561E081E00E94990462E084EF91E082
:10023A000E94F70381E00E940A0561E080E00E94C3
:0C024A006A0281E00E944E04CF910895EA
:10025600CF93C82F20E041E065E270E480E00E9481
:100266002304C23051F128F4CC2349F0C130B1F057
:1002760053C0C33091F1C43009F43FC04DC080E88B
:1002860080930604809125408D7F8093244062E010
:1002960070E080E090E00E94F1044CC080E880931A
:1002A60006048091254082608093244062E070E0DD
:1002B60080E090E00E94F1043DC080E88093050450
:1002C600809125408E7F82608093244062E070E0BA
:1002D60080E090E00E94F1042DC080E88093050440
:1002E600809125408E7F82608093244062E070E09A
:1002F60080E090E00E94F1041DC080E88093050430
:100306008091254083608093244062E070E080E025
:1003160090E00E94F1040EC080E88093060480916C
:1003260025408D7F8093244062E070E080E090E07D
:100336000E94F10420E041E064E270E480E00E9463
:0A034600CB03C0932040CF9108952F
:100350000F931F93CF93DF938C01C62F8091204082
:10036000843009F051C020E041E065E270E487E0AC
:100370000E9423048091254086FF48C080911E4042
:10038000811102C0C0911F4084E08093460485E340
:100390008A95F1F7000081E6809326400E9462056D
:1003A000CC2359F0DFEFD09326408D2F0E946205B9
:1003B000F80181938F01C150B1F7F5E3FA95F1F798
:1003C000000084E08093450420E041E065E270E4B1
:1003D00087E10E9423048091254080FF19C020E01E
:1003E00041E065E270E487E00E94230480912540AB
:1003F00080648093244020E041E064E270E487E080
:100400000E94CB0381E005C080E003C082E001C010
:0C04100081E0DF91CF911F910F910895C2
:10041C00CF93DF93C82FD62F0E946C050E944805FE
:10042C0066E970E080E090E00E94F104D13021F0A8
:10043C0080912140811102C00E949500C13091F041
:10044C0028F0C23009F1C33059F133C080E00E946A
:10045C002B0140E060E081E00E94EE0283E00E940C
:10046C002B012FC080E00E942B0141E061E080E075
:10047C000E94EE0284E00E942B0164E670E080E0B2
:10048C0090E00E94F1041DC080E00E942B0141E02D
:10049C0061E081E00E94EE0281E00E942B0111C01C
:1004AC0080E00E942B0141E061E081E00E94EE02BD
:1004BC0008C080E00E942B0141E061E081E00E94D5
:0804CC00EE02DF91CF910895CB
:1004D400CF93DF93D82FC62F862F0E940A0520E0E2
:1004E40041E065E270E48DE10E942304D13019F506
:1004F4008091254084608093244020E041E064E2C0
:1005040070E48DE10E94CB03C73050F481E090E0A9
:1005140002C0880F991FCA95E2F781508093244046
:1005240020E041E064E270E48CE10E94CB0381E0CE
:1005340080931E400EC0809125408B7F8093244081
:1005440020E041E064E270E48DE10E94CB0310926C
:080554001E40DF91CF910895D4
:10055C001F93CF93DF938823D1F0813081F5809165
:10056C002040833071F5C0E4D4E014E01E8385E3B1
:10057C008A95F1F7000081EE809326400E94620577
:10058C0085E38A95F1F700001D8381E01DC0809101
:10059C0020408430C1F4C0E4D4E014E01E8385E331
:1005AC008A95F1F7000082EE809326400E94620546
:1005BC0085E38A95F1F700001D8381E005C080E09A
:1005CC0003C080E001C080E0DF91CF911F910895BE
:1005DC001F93CF93DF93182FD62FC42F20E041E029
:1005EC0065E270E480E00E942304112331F08091D5
:1005FC00254080648093244005C0809124408F7BEB
:10060C0080932440DD2331F08091244080628093DC
:10061C00244005C0809124408F7D80932440CC23BE
:10062C0031F08091244080618093244005C08091FA
:10063C0024408F7E8093244020E041E064E270E40B
:0E064C0080E00E94CB03DF91CF911F910895B3
:10065A00CF93DF93CDB7DEB72597CDBFDEBF61E07D
:10066A0081E00E940E0285E00E94D8048CE40E9478
:10067A00780488EE0E94B90481E00E940A0561E0CC
:10068A0085E00E94990481E00E9436050E942005B7
:10069A00E0E4F4E080E2818386836894EE24E6F85D
:1006AA00FF24F2F810E265E0CE0101960E94A8014B
:1006BA00813011F4F70117838FE39CE90197F1F771
:0606CA0000C00000F0CFAB
:1006D000CF93C82F20E041E065E270E486E00E94FD
:1006E000230480912540897F80932540C63069F09E
:1006F00018F4CC2331F014C0CC3059F0C23169F079
:100700000FC08660809324400EC084608093244094
:100710000AC082608093244006C08093244003C0B6
:1007200084608093244020E041E064E270E486E04D
:080730000E94CB03CF91089554
:10073800CF93DF93D82FC62F20E041E065E270E425
:1007480080E00E942304DD2331F0809125408860F9
:100758008093244005C080912440877F8093244063
:10076800C23031F48091244084608093244005C0D5
:10077800809124408B7F8093244020E041E064E214
:0E07880070E480E00E94CB03DF91CF910895D2
:100796000F931F93CF93DF938B01C42FD22F94E037
:1007A6009093460495E39A95F1F700008062809352
:1007B60026400E946205CC2349F0F80181918F0101
:1007C600809326400E946205C150B9F7D11107C037
:1007D600F5E3FA95F1F7000084E080934504DF9194
:0807E600CF911F910F910895BE
:1007EE00109224408B3F910588F031E001C0322FEA
:1007FE008A5F91098B3F910518F43093244006C00F
:10080E0021E0230F203199F730932440809124402A
:10081E008295807F9FEF960F9F3018F08093244033
:10082E0003C0862B8093244020E041E064E270E414
:08083E0084E00E94CB03089541
:100846000F931F93CF93DF938B01C42FD22F94E086
:100856009093460495E39A95F1F700000E9462058D
:100866008FEF80932640CC2341F08FEF0E946205E4
:10087600F80181938F01C150C1F7D11107C0F5E38B
:10088600FA95F1F7000084E080934504DF91CF915B
:060896001F910F9108956F
:10089C008130A1F420E041E065E270E48DE10E943A
:1008AC0023048091254081608093244020E041E026
:1008BC0064E270E48DE10E94CB03089520E041E0F6
:1008CC0065E270E48DE10E942304809125408E7FC7
:1008DC008093244020E041E064E270E48DE10E94CA
:0408EC00CB0308959D
:1008F000CF93DF930F92CDB7DEB79FEF980F9D3761
:1009000050F4898320E041E0BE016F5F7F4F85E0B6
:100910000E94CB030AC081E0898320E041E0BE0150
:100920006F5F7F4F85E00E94CB030F90DF91CF91E7
:02093000089528
:100932000F931F93CF93DF930F92CDB7DEB78983C7
:10094200162F662361F001E120E041E0BE016F5FF6
:100952007F4F802F0E94CB030F5F1150A9F789812F
:1009620080931F400F90DF91CF911F910F910895B7
:10097200CF93C82F20E041E065E270E486E00E9458
:10098200230480912540877D80932540CA3F21F42E
:1009920080628093244002C08093244020E041E0A2
:0E09A20064E270E486E00E94CB03CF910895DA
:1009B000CF93C82F8DEF8C0F833028F48EEF8C0FE0
:1009C0008093234003C083E08093234020E041E0F4
:1009D00063E270E483E00E94CB03C0932240CF9196
:0209E000089578
:1009E200AB01BC01411551056105710589F080E03B
:1009F20090E0DC01EFE9FFE03197F1F700C0000081
:100A02000196A11DB11D481759076A077B0791F787
:020A1200089545
:100A1400873060F421E030E0A90102C0440F551F83
:100A24008A95E2F7CA0181508093244020E041E096
:0C0A340064E270E481E00E94CB030895AE
:100A40000F931F93CF9300E010E4CAE020E04091A1
:100A50002240B8018C2F0E94CB03CF5F0B5F1F4F4A
:0C0A6000C031A1F7CF911F910F910895B4
:100A6C0021E030E002C0220F331F8A95E2F72150BB
:100A7C002093244020E041E064E270E482E00E9494
:040A8C00CB030895FB
:100A9000E0E0F4E080E881838683E0E4F4E084E051
:0E0AA0008183858383E0818388E082830895CB
:100AAE00EC010E9479050E947805CE010E947A051C
:060ABE00CE010E94760546
:100AC40080934409E0E4F9E083818823ECF7809182
:040AD4004409089534
:100AD800E0E4F9E081E2808384E081831282089572
:040AE8000C9400006A
:040AEC000E949300D1
:020AF000089567
:020AF200089565
:020AF400089563
:100AF60020C3C2C1A020C3C2C1A120C3C2C1A220BB
:0E0B0600C3C2C1A320C3C2C1A420C3C2C1A5E3
:010B140005DB
:00000001FF
