:100000000C9460000C9431030C9431030C94310374
:100010000C9431030C9431030C9431030C94310390
:100020000C9431030C9431030C9431030C94310380
:100030000C9431030C9431030C9431030C94310370
:100040000C9431030C9431030C9431030C94310360
:100050000C9431030C9431030C9431030C94310350
:100060000C9431030C9431030C9431030C94310340
:100070000C9431030C9431030C9431030C94310330
:100080000C9431030C9431030C9431030C94310320
:100090000C9431030C9431030C9431030C94310310
:1000A0000C9431030C9431034000402880402840D8
:1000B0002D000670402D40318040314033000675E0
:1000C000809101108F7C8060806898ED94BF809350
:1000D000011011241FBECFEFCDBFDFE7DEBFE8EA7E
:1000E000F0E040E019C0B791A791379127910791AF
:1000F00007FD0EC097918791EF01F92FE82F0BBFF5
:1001000007900D92A217B307D9F7FE011BBE04C0DA
:100110001D92A217B307E1F7E03CF40721F70E9414
:0A01200095000C940A03F894FFCF39
:10012A000E941F030E947F020E9428030E94D90294
:10013A002FE788E391E0215080409040E1F700C02A
:10014A000000C0E6D4E08091204090912140A09127
:10015A002240B09123400196A11DB11D80932040F9
:10016A0090932140A0932240B093234082E00E94C2
:10017A00EC028C0183E00E94EC0220912A4030912B
:10018A002B40A801421B530B9A0122F42227332742
:10019A00241B350B2B30310584F4209128403091F3
:1001AA002940AC01421B530B9A0122F42227332720
:1001BA00241B350B2B30310584F04091204050919F
:1001CA0021406091224070912340409324405093F3
:1001DA002540609326407093274000932A4010934D
:1001EA002B40809328409093294020912D4030E065
:1001FA00A901440F551FFA01E05FFF4B00831183E9
:10020A00FA01E050F04C80839183C901019687700E
:10021A009078992324F40197886F9F6F01968093B1
:10022A002D4080E190E40E944201182F80933240D1
:10023A0080E090E40E94420180933140888585FBEA
:10024A00882780F9809330400E946302882361F0F6
:10025A00812F0E94AF01809131400E940B02809150
:10026A0030400E94150302C00E949A028FE097E272
:0A027A000197F1F700C0000066CF05
:10028400DF92EF92FF920F931F93CF93DF93CDB73B
:10029400DEB76097CDBFDEBFDC01FE0131969E0163
:1002A4002F5E3F4F8D919D9181939193E217F307B8
:1002B400C9F767E070E034C080E090E0D12CFC0125
:1002C400EE0FFF1FEE24E394F12CEC0EFD1EEE0D59
:1002D400FF1D008111819C012F5F3F4FF901EE0F3B
:1002E400FF1FEE0DFF1D0190F081E02DE017F107D7
:1002F40070F4880F991F8E0D9F1DDC01ED93FC9304
:10030400220F331FF701E20FF31F00831183D394ED
:100314008D2D90E08417950794F26150710929F0AE
:10032400AB011616170644F2F8CF29853A85AFEFCC
:10033400B0E00E94FB022FEF3FE040E050E00E945B
:100344004102822F6096CDBFDEBFDF91CF911F9116
:0A0354000F91FF90EF90DF900895E5
:10035E0096E8980F9B3008F440C08A37D8F42AE705
:10036E0030E0A901481B5109CA014BE4489F900196
:10037E00499F300D1124A3E9B1E20E94FB029C01BA
:10038E00329522952F7023273F7023278EE5482F15
:10039E00421B1FC090E0845891092AE6289FA001B5
:1003AE00299F500D11249A01A9E6BAE00E94FB0282
:1003BE00481B590B56954795840F951F0024880F9F
:1003CE00991F001C880F991F001C892F902D4EE538
:1003DE00480F433118F443E101C04EE520912C4003
:1003EE00842F493C08F088EC90E0821B910995958A
:1003FE00879595958795820F80932C4090E08093FA
:08040E00280A9093290A0895C1
:100416009AEB980F953140F48CE080930604109285
:100426002A0A10922B0A0895863490F4E0E0F4E04C
:1004360094E0968398E0958396E4981B27E8929F2C
:10044600C001112466E470E00E94B102685810C031
:10045600E0E0F4E094E0958398E096838A5527E8F7
:10046600829FC001112465EA70E00E94B1026858BB
:0C04760070E060932A0A70932B0A08952E
:10048200A1E21A2EAA1BBB1BFD010DC0AA1FBB1F96
:10049200EE1FFF1FA217B307E407F50720F0A21B08
:1004A200B30BE40BF50B661F771F881F991F1A9475
:1004B20069F760957095809590959B01AC01BD019F
:0404C200CF010895C9
:1004C60040912040509121406091224070912340FC
:1004D6008091244090912540A0912640B0912740DC
:1004E600481B590B6A0B7B0B81E0493E5340610563
:0804F600710508F080E0089593
:1004FE00E0E0F4E08FE2818380E286838CE0868305
:10050E008CE280936204E0E1F0E4A0E0B0E420E24B
:10051E0030E480E098E0819391938D939D93E21760
:06052E00F307C9F7089570
:10053400A0E0BAE08EE590E098968D939C9399970D
:10054400E0E0F4E08CE086839A961D921C929B97DF
:0E05540010922F4010922E4080E28683089570
:1005620097FB072E16F4009407D077FD09D00E945E
:10057200C50207FC05D03EF4909581959F4F0895E2
:08058200709561957F4F08950B
:10058A00AA1BBB1B51E107C0AA1FBB1FA617B707AF
:10059A0010F0A61BB70B881F991F5A95A9F78095CB
:0805AA009095BC01CD010895FC
:1005B2001092E605E0E0FAE082EE94E086A397A3CB
:1005C20083E381838EE590E080A791A712A613A60C
:0605D2008BE08083089518
:1005D800E0E0F6E0808781E08287858580FFFDCFB7
:0E05E800E0E0F6E081E0858780899189089542
:1005F600A29FB001B39FC001A39F700D811D11245E
:0E060600911DB29F700D811D1124911D08954C
:10061400EC010E9436030E943503CE010E94370389
:06062400CE010E94330329
:10062A00882321F080E280930504089580E2809374
:04063A000604089515
:10063E00E0E6F0E0108283E08183858180FDFDCFCE
:02064E0008950D
:1006500085E08093B000E0E0F6E081E08283808373
:020660000895FB
:040662000C940000F4
:040666000E9493005B
:02066A000895F1
:02066C000895EF
:02066E000895ED
:02067000000880
:0206720000087E
:010674005E27
:010675005034
:010676007F04
:00000001FF
