:100000000C9457000C949E030C949E030C949E0336
:100010000C949E030C949E030C949E030C949E03DC
:100020000C94D5010C949E030C949E030C949E0397
:100030000C949E030C949E030C9495030C949E03C5
:100040000C949E030C949E030C949E030C949E03AC
:100050000C949E030C949E030C949E030C949E039C
:100060000C949E030C949E030C949E030C949E038C
:100070000C949E030C949E030C949E030C949E037C
:100080000C949E030C949E030C949E030C949E036C
:100090000C949E030C949E030C949E030C949E035C
:1000A0000C949E030C949E034000401180008091AC
:1000B00001108F7C8060806898ED94BF8093011060
:1000C00011241FBECFEFCDBFDFE7DEBFE8EAF0E0CF
:1000D00040E019C0B791A79137912791079107FD8B
:1000E0000EC097918791EF01F92FE82F0BBF079072
:1000F0000D92A217B307D9F7FE011BBE04C01D92D3
:10010000A217B307E1F7ED3AF40721F70E943D018A
:080110000C948A03F894FFCF60
:0A0118003F065B4F666D7D077F6FA9
:10012200CF93DF93CDB7DEB72897CDBFDEBFAC014B
:100132009C01369527953695279536952795A5ECFA
:10014200B0E20E946503FC01F295E295EF70EF27A1
:10015200FF70EF279F01ADECBCEC0E946503969502
:1001620087959695879596958795880F991F9C01F7
:10017200220F331F220F331F820F931FE81BF90B2D
:10018200E9839A013695279536952795ABE7B4E131
:100192000E946503FC01F695E7959F01ADECBCEC6E
:1001A2000E9465039695879596958795969587956E
:1001B200880F991F9C01220F331F220F331F820FBA
:1001C200931FE81BF90BEA839A010E946503FC0165
:1001D200F695E795F695E795F695E7959F010E94C6
:1001E2006503969587959695879596958795880F39
:1001F200991F9C01220F331F220F331F820F931F5F
:100202009F01281B390B2B83EE0FFF1FCF01880F95
:10021200991F880F991FE80FF91FCA018E1B9F0BA8
:100222008C83DE011196CE010596BC01ED91F0E0C2
:10023200E85EFE472081FC012193CF01A617B70794
:10024200A9F7483EF3E05F0708F41D8244365105E2
:1002520008F41E824A30510508F41F82452B11F41E
:100262008FE38887CE0105960E94C3022896CDBFF0
:08027200DEBFDF91CF9108957A
:10027A00E0E6F0E0108283E08183E0E0F4E08CE0E5
:10028A008183858381E0818392E09283868389E0FA
:10029A00818B0E9474030E9445030E947F030E947F
:1002AA003F022FE73AE186E0215030408040E1F7F3
:1002BA0000C00000789480E090E00E9491000F2E28
:1002CA00F4EBFF2EF02D0FEF13E0C0E0D4E00E9414
:1002DA003303809110408823E1F30E9489020E942F
:1002EA009A010E9491001092104084E00E945603E5
:1002FA009C01F29EC001F39E900D1124B8010E9448
:10030A000B03CB010E94A702888586FD04C08AE5FB
:10031A0090E00E94A7023FE788E391E031508040D5
:0A032A009040E1F700C00000D2CFC0
:100334000F931F9320910F4030E0F901EE0FFF1F40
:10034400E050F04C80839183C901019665E070E030
:100354000E941F03082F80930F40811114C081E075
:1003640080930E4005E0E0E0F0E440E060E070E0FF
:10037400CB0121913191620F731F811D911D4F5F3C
:100384004017B8F305C080910E40882361F3EACF8B
:1003940010E020E030E0A90198010E946702C90141
:0603A4001F910F91089566
:1003AA001F921FB61F9211248F938BB78F939F931F
:1003BA00EF93FF938091090481FF21C08091080483
:1003CA0081FF0CC0E0E0FBE01286138610920C401D
:1003DA0010920D408081816080830EC0E0E0FBE0D6
:1003EA008285938580930A4090930B4080818E7F0B
:1003FA00808381E08093104082E080930904FF911A
:10040A00EF919F918F918BBF8F911F901FBE1F906D
:02041A00189533
:10041C0098E0E0E0F4E024E038E0268342E04A95FE
:10042C00F1F700C080FF02C0358301C0368342E083
:10043C004A95F1F700C0258342E04A95F1F700C0D8
:10044C008695915051F7E0E0F4E084E0868398E0E3
:10045C00928326E02A95F1F700C0858342E04A9505
:10046C00F1F700C08683918382E08A95F1F700C092
:02047C000895E1
:10047E00CF93DF9300D000D0CDB7DEB78FE493ECEF
:10048E000197F1F700C000000E94F60280E40E947E
:10049E000E020E94DD020E94F6028FE80E940E02FA
:1004AE000E94DD0219821A821B821C82CE010196E5
:1004BE000E94C3022496CDBFDEBFDF91CF91089577
:1004CE00A1E21A2EAA1BBB1BFD010DC0AA1FBB1F4A
:1004DE00EE1FFF1FA217B307E407F50720F0A21BBC
:1004EE00B30BE40BF50B661F771F881F991F1A9429
:1004FE0069F760957095809590959B01AC01BD0153
:04050E00CF0108957C
:1005120080910A4090910B400097B9F020910A40D7
:1005220030910B40A9E0BCE80E9465030024880FCB
:10053200991F001C880F991F001C892F902D81394B
:0C05420021E0920710F080E090E00895A6
:10054E0048EE53E0849F9001859F300D949F300DAF
:10055E001124A3E8BDE20E946503969587959295B6
:10056E0082958F7089279F70892788519C4F809321
:08057E00280A9093290A089550
:100586000F931F93CF93DF938C010E94F60280ECAA
:100596000E940E02E8010C5F1F4F89910E940E0215
:1005A600C017D107D1F70E94DD02DF91CF911F91CD
:0405B6000F91089504
:1005BA00E0E0F4E094E0968322E02A95F1F700C0A7
:1005CA0088E0868322E02A95F1F700C0958392E0BD
:1005DA009A95F1F700C0858322E02A95F1F700C0C9
:0205EA00089572
:1005EC00E0E0F4E098E0958384E0858322E02A95AE
:1005FC00F1F700C0968392E09A95F1F700C08683DC
:0A060C0022E02A95F1F700C00895DE
:10061600AA1BBB1B51E107C0AA1FBB1FA617B70722
:1006260010F0A61BB70B881F991F5A95A9F780953E
:080636009095BC01CD0108956F
:10063E0097FB072E16F4009407D077FD09D00E9481
:10064E000B0307FC05D03EF4909581959F4F0895BE
:08065E00709561957F4F08952E
:10066600E0E0FBE080818E7F808382E08683E0E0AD
:10067600F4E0818781E085839DE09A95F1F700009B
:0406860086830895CA
:10068A0080E880930104E0E0FAE089E0808383E077
:10069A00818380E29EE486A397A38181806181831E
:0206AA000895B1
:1006AC00E0E0F6E0808781E08287858580FFFDCFE2
:0E06BC00E0E0F6E081E085878089918908956D
:1006CA00A29FB001B39FC001A39F700D811D112489
:0E06DA00911DB29F700D811D1124911D089578
:1006E80085E08093B000E0E0F6E08081816080835F
:0606F80081E082830895F9
:1006FE00E0E0FBE082E08083118220E63AEE248780
:06070E0035878583089584
:10071400EC010E94A3030E94A203CE010E94A40341
:06072400CE010E94A003BB
:10072A008F9382E08093060B81E0809310408F9133
:02073A00189510
:04073C000C94000019
:040740000E948A0089
:02074400089516
:02074600089514
:02074800089512
:00000001FF
