:100000000C9454000C94FF020C94FF020C94FF0219
:100010000C94FF020C94FF020C94FF020C94FF025C
:100020000C94FF020C94FF020C94FF020C94FF024C
:100030000C94FF020C94FF020C94FF020C94FF023C
:100040000C94FF020C94FF020C94FF020C94FF022C
:100050000C94FF020C94FF020C94FF020C94FF021C
:100060000C94FF020C94FF020C94FF020C94FF020C
:100070000C94FF020C94FF020C94FF020C94FF02FC
:100080000C94FF020C94FF020C94FF020C94FF02EC
:100090000C94FF020C94FF020C94FF020C94FF02DC
:1000A0000C94FF020C94FF02809101108F7C806001
:1000B000806898ED94BF8093011011241FBECFEF8C
:1000C000CDBFDFE7DEBFE8EAF0E040E019C0B7915E
:1000D000A79137912791079107FD0EC097918791BE
:1000E000EF01F92FE82F0BBF07900D92A217B3076E
:1000F000D9F7FE011BBE04C01D92A217B307E1F79A
:10010000E83AF40721F70E948D010C94F402F89468
:02011000FFCF1F
:0A0112003F065B4F666D7D077F6FAF
:10011C00CF93DF93CDB7DEB72897CDBFDEBFAC0151
:10012C009C01369527953695279536952795A5EC00
:10013C00B0E20E94E502FC01F295E295EF70EF2728
:10014C00FF70EF279F01ADECBCEC0E94E502969589
:10015C0087959695879596958795880F991F9C01FD
:10016C00220F331F220F331F820F931FE81BF90B33
:10017C00E9839A013695279536952795ABE7B4E137
:10018C000E94E502FC01F695E7959F01ADECBCECF5
:10019C000E94E502969587959695879596958795F5
:1001AC00880F991F9C01220F331F220F331F820FC0
:1001BC00931FE81BF90BEA839A010E94E502FC01EC
:1001CC00F695E795F695E795F695E7959F010E94CC
:1001DC00E502969587959695879596958795880FC0
:1001EC00991F9C01220F331F220F331F820F931F65
:1001FC009F01281B390B2B83EE0FFF1FCF01880F9C
:10020C00991F880F991FE80FF91FCA018E1B9F0BAE
:10021C008C83DE011196CE010596BC01ED91F0E0C8
:10022C00EE5EFE472081FC012193CF01A617B70794
:10023C00A9F7483EF3E05F0708F41D8244365105E8
:10024C0008F41E824A30510508F41F82CE0105962F
:10025C000E944F022896CDBFDEBFDF91CF9108954B
:10026C008337910520F5E0E0F4E022E0258324E0DB
:10027C00268321E0289FA001299F500D581B112493
:10028C0043575D489A01A1EFBCE10E94E502481B6F
:10029C00590B56954795840F951F0024880F991F6D
:1002AC00001C880F991F001C892F902D2AC085389F
:1002BC00910518F1E0E0F4E022E0268324E02583A8
:1002CC002FEF289FA001299F500D11244C57534804
:1002DC009A01A9E6BAE00E94E502481B590B569513
:1002EC004795840F951F0024880F991F001C880FB9
:1002FC00991F001C892F902D04C086E08093060462
:0E030C0080E090E08093280A9093290A0895DB
:10031A00CF93DF9300D000D0CDB7DEB7E0E6F0E0B0
:10032A00108283E081830E949A020E9405028FE76D
:10033A0089838A838B838C83CE0101960E944F0224
:10034A002FEF84E39CE0215080409040E1F700C009
:10035A0000000E94C6020E94D602789480E090E0D3
:10036A000E948E002FE78AE196E02150804090405B
:10037A00E1F700C000000E9482028C011127C80127
:10038A000E948E00C8010E9436012FE788E391E09F
:0E039A00215080409040E1F700C00000ECCF01
:1003A80098E0E0E6F4E020E830E4268342E04A956D
:1003B800F1F700C080FF02C0358301C0368342E0F8
:1003C8004A95F1F700C0258342E04A95F1F700C04D
:1003D8008695915051F7E0E6F4E080E8868390E452
:1003E800928326E02A95F1F700C0858342E04A957A
:1003F800F1F700C08683918382E08A95F1F700C007
:02040800089555
:10040A00CF93DF9300D000D0CDB7DEB78FE493EC63
:10041A000197F1F700C000000E94B10280E40E9437
:10042A00D4010E9469020E94B1028FE80E94D4019D
:10043A000E94690219821A821B821C82CE010196CD
:10044A000E944F022496CDBFDEBFDF91CF9108955F
:10045A00A1E21A2EAA1BBB1BFD010DC0AA1FBB1FBE
:10046A00EE1FFF1FA217B307E407F50720F0A21B30
:10047A00B30BE40BF50B661F771F881F991F1A949D
:10048A0069F760957095809590959B01AC01BD01C7
:04049A00CF010895F1
:10049E000F931F93CF93DF938C010E94B10280ECD8
:1004AE000E94D401E8010C5F1F4F89910E94D40174
:1004BE00C017D107D1F70E946902DF91CF911F912A
:0404CE000F910895ED
:1004D200E0E6F4E090E8968322E02A95F1F700C086
:1004E20080E4868322E02A95F1F700C0958392E0AA
:1004F2009A95F1F700C0858322E02A95F1F700C0B2
:0205020008955A
:10050400E0E0F6E0858580FFFDCFE0E0F6E02089BD
:10051400318981E08587AFEFB0E00E94E5022FEFDB
:100524003FE040E050E00E942D02822F90E00895C9
:10053400E0E6F4E080EC81838583A0E0B4E087E02A
:1005440011968C93119794E0928316968C9382E083
:0E055400818390E19283868389E0848B0895F1
:10056200E0E6F4E090E4958380E8858322E02A9532
:10057200F1F700C0968392E09A95F1F700C0868366
:0A05820022E02A95F1F700C0089569
:10058C0080E88FBF85E88093B000E0E0F6E081E082
:10059C00848792E09087128293E0908382870895FB
:1005AC001092E605E0E0FAE08BE0808383E1818342
:0E05BC008FEF90E086A397A310A611A60895D6
:1005CA00A29FB001B39FC001A39F700D811D11248A
:0E05DA00911DB29F700D811D1124911D089579
:1005E800EC010E9404030E940303CE010E9405034C
:0605F800CE010E94010388
:0405FE000C94000059
:040602000E948700CB
:02060600089555
:02060800089553
:02060A00089551
:00000001FF
