:100000000C945A000C94F1000C94F1000C94F10043
:100010000C94F1000C94F1000C94F1000C94F1009C
:100020000C94F1000C94F1000C94F1000C94F1008C
:100030000C94F1000C94F1000C94F1000C94F1007C
:100040000C94F1000C94F1000C94F1000C94F1006C
:100050000C94F1000C94F1000C94F1000C94F1005C
:100060000C94F1000C94F1000C94F1000C94F1004C
:100070000C94F1000C94F1000C94F1000C94F1003C
:100080000C94F1000C94F1000C94F1000C94F1002C
:100090000C94F1000C94F1000C94F1000C94F1001C
:1000A0000C94F1000C94F10040004028804028405E
:1000B0002A0001F0809101108F7C8060806898EDAB
:1000C00094BF8093011011241FBECFEFCDBFDFE797
:1000D000DEBFE8EAF0E040E019C0B791A7913791A0
:1000E0002791079107FD0EC097918791EF01F92F96
:1000F000E82F0BBF07900D92A217B307D9F7FE01A7
:100100001BBE04C01D92A217B307E1F7E43BF4073E
:0E01100021F70E948F000C94E600F894FFCFB8
:10011E0080912840909129400097B9F0C0E0D0E43A
:10012E008C01000F111F0050104CE0E0F0E09C011C
:10013E0021503109CF01B9010E94D2006993799300
:10014E00E150FF4FC017D107A9F788ED84BF8CE1AE
:10015E0080936800E0E6F0E0858180FDFDCF81E4CC
:10016E008093A00685E88093B20080E090E0C0EA1C
:10017E00D6E0FC01EE0FFF1FE050F04C20812B83E8
:10018E00019660912840709129400E94D20024E689
:06019E002A95F1F7EECFF7
:1001A400AA1BBB1B51E107C0AA1FBB1FA617B70799
:1001B40010F0A61BB70B881F991F5A95A9F78095B5
:0801C4009095BC01CD010895E6
:1001CC00EC010E94F6000E94F500CE010E94F7009F
:0601DC00CE010E94F300B9
:0401E2000C94000079
:0401E6000E948D00E6
:0201EA00089576
:0201EC00089574
:0201EE00089572
:0201F0001400F9
:00000001FF
